:020000040000FA
:0600000005EF05F01200FF
:020006001200E6
:0600080016EF00F01200EB
:02000E000000F0
:050010000000000000EB
:0600180047EF00F01200AA
:02001E000100DF
:0C0020000E000000CA00000007000000F5
:04002C00DACFE4FF44
:10003000E2CFDAFFE652F2A20AD0010E0001CA6F47
:10004000CB6B81A202D0CC2B01D0CC07F292F2A0D4
:100050001AD08150200B01E0010E0001D01904E0FC
:10006000CD2B000ECE2303D0CD07000ECE5B8150EA
:10007000100B01E0010ED06F8150200B02E0808256
:1000800001D08092F290E552E5CFDAFF1100D8CF8F
:10009000E4FFE0CFE4FFE46EDACFE4FFE2CFDAFF83
:1000A000E6520001010ECF6FF294E552E5CFDAFF80
:1000B000E550E5CFE0FFE5CFD8FF1000D9CFE6FF50
:1000C000E1CFD9FFFD0EDB5005E08194FE0EDB5041
:1000D000BE6E04D08184FE0EDB50BE6EE552E7CFCB
:1000E000D9FF1200D9CFE6FFE1CFD9FFD950FB0FDE
:1000F000E96EFF0EDA20EA6ED890030EEB50000A8C
:1001000008E6000EEE5C000EEE58000EEE58000EF3
:10011000EE581EE2FB0EDBCF14F0FC0EDBCF15F029
:10012000FD0EDBCF16F0FE0EDBCF17F0000E146CC9
:10013000151E1522161E1622171E172214C004F0B3
:1001400015C005F016C006F017C007F016D015D080
:10015000FB0EDBCF14F0FC0EDBCF15F0FD0EDBCF7A
:1001600016F0FE0EDBCF17F014C004F015C005F03A
:1001700016C006F017C007F000D0E552E7CFD9FF50
:100180001200D9CFE6FFE1CFD9FFD950FB0FE96EBE
:10019000FF0EDA20EA6ED890030EEB50000A08E654
:1001A000000EEE5C000EEE58000EEE58000EEE58FB
:1001B00003E2FF0E20D01FD0FB0EDBCF05F0FC0EBC
:1001C000DBCF06F0FD0EDBCF07F0FE0EDBCF08F035
:1001D0000834000E081809E6D880000E0554000EF9
:1001E0000654000E0754000E085403E2010E03D01B
:1001F00002D0000E00D0E552E7CFD9FF1200D9CFD0
:10020000E6FFE1CFD9FF300EE126DE6ADE6ADE6A64
:10021000DD6ADD52DD52040EDB6A050EDB6A060E76
:10022000DB6A070EDB6A080EDB6A090EDB6A0A0E60
:10023000DB680B0EDB6A0C0EDB6A0D0EDB6A0E0E42
:10024000DB6A0F0EDB6A100EDB6A110EDB6A120E20
:10025000DB6A130EDB6A140EDB6A150EDB6A160E00
:10026000DB6A170EDB6A180EDB6A190EDB6A1A0EE0
:10027000DB6A1B0EDB6A1C0EDB6A1D0EDB6A1E0EC0
:10028000DB6A1F0EDB6A200EDB6A210EDB6A220EA0
:10029000DB6A230EDB6A240EDB6A250EDB6A260E80
:1002A000DB6A270EDB6A280EDB6A290EDB6A2A0E60
:1002B000DB6A2B0EDB6A2C0EDB6A2D0EDB6AF29EEC
:1002C000F29CF28AF288F286F18EF18CF194F18040
:1002D000D08ED58CD59AD596D594D582D580D58E0D
:1002E0009388938A939C939E938093829280929218
:1002F000C180C182C184C186C188C18AC18CC290BB
:1003000093869384CB68BD90BD92BD84BD86BD9C11
:10031000BD9EBD9ABD98BE6A9E92CA82CA80CA849A
:100320009EB205D02E0EDB6A2F0EDB6AF9D79396AC
:100330009394B69ED388D38AD38C0B0EDB6A0C0EB3
:10034000DB6A0D0EDB6A0E0EDB6A0001CF6BCC6B35
:10035000CD6BCE6BE66AE66AB1DEE552E552F28E0F
:10036000F28CF29E040ECFC0DBFFF28EDB5001E177
:100370009DD1F29E0001CF6BCDC014F0CEC015F020
:10038000166A176A15AE02D016681768060E14C0F2
:10039000DBFF070E15C0DBFF080E16C0DBFF090EE2
:1003A00017C0DBFF050ECCC0DBFFCC6BCA51CB11F5
:1003B0001CE0CB3504E2CA51F408010ECB5510E223
:1003C000010EF36E2C0EF3CFDBFFCA6BCB6B8150AB
:1003D000020B01E0010EE76E2D0EE7CFDBFF05D02B
:1003E00081A003D0CA2B000ECB23F28E050EDBCFEB
:1003F00014F0156A166A176A14AE03D015681668E9
:100400001768D9500B0FE96EDACFEAFFEE501426C9
:10041000EE501522EE501622EE5017220B0E14C08D
:10042000DBFF0C0E15C0DBFF0D0E16C0DBFF0E0E42
:1004300017C0DBFF2C0EDB503DE080A015D0E66A34
:10044000E66A3CDEE552E5522C0EDB6A0B0EDB6AF7
:100450000C0EDB6A0D0EDB6A0E0EDB6AF29E0001EB
:10046000CD6BCE6BF28E25D02D0EDB5012E0010E3F
:10047000E66E960EE66EE66AE66AE66A33DEE552F8
:10048000E552E552E5520450E66E18DEE552E552BB
:1004900010D0E66A880EE66EE668E668E66822DE58
:1004A000E552E552E552E5520450E66E07DEE552AC
:1004B000E552FCD00B0EDBCF18F00C0EDBCF19F0A1
:1004C0000D0EDBCF1AF00E0EDBCF1BF0D950060F4E
:1004D000E96EDACFEAFFEE50185C146EEE50195850
:1004E000156EEE501A58166EEE501B58176E0F0E02
:1004F00014C0DBFF100E15C0DBFF110E16C0DBFFB2
:10050000120E17C0DBFF146A156A0C0E166E420E2F
:10051000176E0F0EDBCF1CF0100EDBCF1DF0110E8F
:10052000DBCF1EF0120EDBCF1FF01CC004F01DC08D
:1005300005F01EC006F01FC007F063EC03F005C015
:1005400018F006C019F007C01AF008C01BF018C058
:100550000AF019C00BF01AC00CF01BC00DF014C04B
:1005600005F015C006F016C007F017C008F07CECC7
:1005700003F0E9EC03F0230E04C0DBFF240E05C0FA
:10058000DBFF250E06C0DBFF260E07C0DBFF230EB8
:10059000DBCF05F0240EDBCF06F0250EDBCF07F016
:1005A000260EDBCF08F00834000E081809E6D880C4
:1005B000000E0554000E0654000E0754000E085499
:1005C00037E3D950230FE96EDACFEAFFD880030E64
:1005D000EB50FF0A08E6880EEE5CFF0EEE58FF0EA9
:1005E000EE58FF0EEE580BE2880EF36E230EF3CF9B
:1005F000DBFF240EDB68250EDB68260EDB68E66A6F
:10060000D950230FE96EDACFEAFFEECFE6FFEECF47
:10061000E6FFEECFE6FFEFCFE6FF64DDE552E55201
:10062000E552E5520450E66E49DDE552E5523ED012
:10063000230EDBCF05F0240EDBCF06F0250EDBCF3B
:1006400007F0260EDBCF08F00834000E081809E684
:10065000D880960E0554000E0654000E0754000E66
:1006600008540BE2960EF36E230EF3CFDBFF240E3D
:10067000DB6A250EDB6A260EDB6A010EE66ED950B8
:10068000230FE96EDACFEAFFEECFE6FFEECFE6FF0B
:10069000EECFE6FFEFCFE6FF25DDE552E552E5526E
:1006A000E5520450E66E0ADDE552E5525AD6300EA8
:1006B000E15C02E2E16AE552E16EE552E7CFD9FF83
:0206C000120026
:0E06C2000F9E0CD00F9E07AE09D0046C051ED3
:1006D000061E071EE86A0522062207220F8E07C0A3
:1006E00001F006C000F005C013F004C012F09E0E29
:1006F000026E036A3CEF04F00F6A78EC04F090ECB1
:1007000004F00FB620EF04F00FA205D00FB820EFD1
:1007100004F027EF04F00FAA05D00FB020EF04F08B
:1007200027EF04F00FB002D00FA802D033EF04F08F
:10073000036A0D500824026EE86A03227E0E025EF0
:10074000E86A035A126A136A006A016A0C500702C7
:10075000F4CF01F0F3CF00F00B500702F350132653
:10076000F4500022000E01220C500602F350132612
:10077000F4500022000E01220A500702F350122604
:10078000F4501322000E002201220B500602F350F7
:100790001226F4501322000E002201220C500502F2
:1007A000F3501226F4501322000E002201220A50A8
:1007B0000602F4501226000E1322002201220B50D2
:1007C0000502F4501226000E1322002201223CEFF3
:1007D00004F00F6A78EC04F00FB6F3EF03F00FA209
:1007E0000FD00FB407D07F0E076EFF0E066E056E9A
:1007F000046E25D0800E076E01D0076A000EF6D772
:100800000FB0FBD7046A9F0E0860EBD77E0E08641A
:10081000F4D79E0E085C07E0D89007320632053206
:100820000432082AF6D70FA40AD0046C051E061E4F
:10083000071EE86A05220622072207AEDED712004D
:100840007F0E086EFF0E076E066E056E12007F0E9D
:100850000FBEFF0E086E02D07F0E086E800E076E70
:10086000066A056AF3D70FAE04D0800E086E076AD9
:10087000F7D7086A076AF4D7015000101310121056
:10088000F8E003BEF0D701BE0CD002500310EBE03D
:10089000D89012361336003601360206D8A0030669
:1008A000F2D70350D4E10228D2E012AE11D07F0E6D
:1008B000121402E113A00CD0132AE86A00220122CC
:1008C00007E3D880013200321332022A0228BFE047
:1008D0000250C9E013C005F000C006F00134076EF5
:1008E0000230086E0732089E0FBE088E26EF04F015
:1008F0000736083602E30F840F7E06E10F80086A90
:10090000076A066A056A1200082803E0D8800732E1
:100910001200D890073202E10F8212000F861200F7
:100920000C360D3602E30F8C0F7E06E10F880D6A40
:100930000C6A0B6A0A6A12000D2803E0D8800C3298
:0C0940001200D8900C32EAE10F8A12007D
:04094C001E0EF66E17
:10095000000EF76E000EF86E00010900F550C56F2D
:100960000900F550C66F03E1C56701D03DD009000D
:10097000F550C06F0900F550C16F0900F550C26F06
:1009800009000900F550E96E0900F550EA6E09000A
:1009900009000900F550C36F0900F550C46F090044
:1009A0000900F6CFC7F0F7CFC8F0F8CFC9F0C0C044
:1009B000F6FFC1C0F7FFC2C0F8FF0001C35302E158
:1009C000C45307E00900F550EE6EC307F8E2C40710
:1009D000F9D7C7C0F6FFC8C0F7FFC9C0F8FF0001CC
:0A09E000C507000EC65BBFD712006A
:0609EA00000EF36E00EEAA
:1009F00000F0010E01D81200EA6002D0EE6AFCD7C6
:0A0A0000F350E9601200EE6AFCD723
:060A0A0010EE80F020EE6A
:100A100080F0F86A0F9CA6EC04F003EC00F0FFEC09
:060A200000F0FBD71200FC
:020000040030CA
:01000100C836
:010002000DF0
:010003001EDE
:0100050000FA
:010006008178
:00000001FF
